{
  "_format": "hh-sol-artifact-1",
  "contractName": "GoalZilla",
  "sourceName": "contracts/GoalZilla.sol",
  "abi": [
    {
      "anonymous": false,
      "inputs": [
        {
          "indexed": true,
          "internalType": "uint256",
          "name": "campaignId",
          "type": "uint256"
        },
        {
          "indexed": true,
          "internalType": "address",
          "name": "creator",
          "type": "address"
        },
        {
          "indexed": false,
          "internalType": "string",
          "name": "title",
          "type": "string"
        },
        {
          "indexed": false,
          "internalType": "uint256",
          "name": "goalAmount",
          "type": "uint256"
        }
      ],
      "name": "CampaignCreated",
      "type": "event"
    },
    {
      "anonymous": false,
      "inputs": [
        {
          "indexed": true,
          "internalType": "uint256",
          "name": "campaignId",
          "type": "uint256"
        },
        {
          "indexed": true,
          "internalType": "address",
          "name": "recipient",
          "type": "address"
        },
        {
          "indexed": false,
          "internalType": "uint256",
          "name": "amount",
          "type": "uint256"
        }
      ],
      "name": "FundsWithdrawn",
      "type": "event"
    },
    {
      "anonymous": false,
      "inputs": [
        {
          "indexed": true,
          "internalType": "uint256",
          "name": "campaignId",
          "type": "uint256"
        },
        {
          "indexed": true,
          "internalType": "uint256",
          "name": "milestoneIndex",
          "type": "uint256"
        }
      ],
      "name": "MilestoneAccepted",
      "type": "event"
    },
    {
      "anonymous": false,
      "inputs": [
        {
          "indexed": true,
          "internalType": "uint256",
          "name": "campaignId",
          "type": "uint256"
        },
        {
          "indexed": true,
          "internalType": "uint256",
          "name": "milestoneIndex",
          "type": "uint256"
        },
        {
          "indexed": false,
          "internalType": "string",
          "name": "proofOfCompletion",
          "type": "string"
        }
      ],
      "name": "MilestoneCompleted",
      "type": "event"
    },
    {
      "anonymous": false,
      "inputs": [
        {
          "indexed": true,
          "internalType": "uint256",
          "name": "campaignId",
          "type": "uint256"
        },
        {
          "indexed": true,
          "internalType": "uint256",
          "name": "milestoneIndex",
          "type": "uint256"
        },
        {
          "indexed": false,
          "internalType": "uint256",
          "name": "amount",
          "type": "uint256"
        }
      ],
      "name": "MilestoneFunded",
      "type": "event"
    },
    {
      "anonymous": false,
      "inputs": [
        {
          "indexed": true,
          "internalType": "uint256",
          "name": "campaignId",
          "type": "uint256"
        },
        {
          "indexed": true,
          "internalType": "uint256",
          "name": "milestoneIndex",
          "type": "uint256"
        }
      ],
      "name": "MilestoneRejected",
      "type": "event"
    },
    {
      "anonymous": false,
      "inputs": [
        {
          "indexed": true,
          "internalType": "uint256",
          "name": "campaignId",
          "type": "uint256"
        },
        {
          "indexed": true,
          "internalType": "uint256",
          "name": "milestoneIndex",
          "type": "uint256"
        }
      ],
      "name": "MilestoneUnderReview",
      "type": "event"
    },
    {
      "anonymous": false,
      "inputs": [
        {
          "indexed": true,
          "internalType": "uint256",
          "name": "campaignId",
          "type": "uint256"
        },
        {
          "indexed": true,
          "internalType": "uint256",
          "name": "milestoneIndex",
          "type": "uint256"
        },
        {
          "indexed": true,
          "internalType": "address",
          "name": "voter",
          "type": "address"
        },
        {
          "indexed": false,
          "internalType": "bool",
          "name": "isUpvote",
          "type": "bool"
        },
        {
          "indexed": false,
          "internalType": "string",
          "name": "message",
          "type": "string"
        }
      ],
      "name": "VoteSubmitted",
      "type": "event"
    },
    {
      "inputs": [],
      "name": "campaignCounter",
      "outputs": [
        {
          "internalType": "uint256",
          "name": "",
          "type": "uint256"
        }
      ],
      "stateMutability": "view",
      "type": "function"
    },
    {
      "inputs": [
        {
          "internalType": "uint256",
          "name": "",
          "type": "uint256"
        }
      ],
      "name": "campaigns",
      "outputs": [
        {
          "internalType": "uint256",
          "name": "id",
          "type": "uint256"
        },
        {
          "internalType": "address",
          "name": "creator",
          "type": "address"
        },
        {
          "internalType": "string",
          "name": "title",
          "type": "string"
        },
        {
          "internalType": "string",
          "name": "description",
          "type": "string"
        },
        {
          "internalType": "string",
          "name": "category",
          "type": "string"
        },
        {
          "internalType": "uint256",
          "name": "goalAmount",
          "type": "uint256"
        },
        {
          "internalType": "uint256",
          "name": "totalFunded",
          "type": "uint256"
        },
        {
          "internalType": "uint256",
          "name": "duration",
          "type": "uint256"
        },
        {
          "internalType": "uint256",
          "name": "createdAt",
          "type": "uint256"
        },
        {
          "internalType": "bool",
          "name": "isActive",
          "type": "bool"
        },
        {
          "internalType": "uint256",
          "name": "currentMilestone",
          "type": "uint256"
        },
        {
          "internalType": "string",
          "name": "proofOfWork",
          "type": "string"
        },
        {
          "internalType": "string",
          "name": "beneficiaries",
          "type": "string"
        }
      ],
      "stateMutability": "view",
      "type": "function"
    },
    {
      "inputs": [
        {
          "internalType": "string",
          "name": "",
          "type": "string"
        },
        {
          "internalType": "uint256",
          "name": "",
          "type": "uint256"
        }
      ],
      "name": "categoryToCampaigns",
      "outputs": [
        {
          "internalType": "uint256",
          "name": "",
          "type": "uint256"
        }
      ],
      "stateMutability": "view",
      "type": "function"
    },
    {
      "inputs": [
        {
          "internalType": "uint256",
          "name": "_campaignId",
          "type": "uint256"
        },
        {
          "internalType": "uint256",
          "name": "_milestoneIndex",
          "type": "uint256"
        },
        {
          "internalType": "string",
          "name": "_proofOfCompletion",
          "type": "string"
        }
      ],
      "name": "completeMilestone",
      "outputs": [],
      "stateMutability": "nonpayable",
      "type": "function"
    },
    {
      "inputs": [
        {
          "internalType": "string",
          "name": "_title",
          "type": "string"
        },
        {
          "internalType": "string",
          "name": "_description",
          "type": "string"
        },
        {
          "internalType": "string",
          "name": "_category",
          "type": "string"
        },
        {
          "internalType": "uint256",
          "name": "_goalAmount",
          "type": "uint256"
        },
        {
          "internalType": "uint256",
          "name": "_duration",
          "type": "uint256"
        },
        {
          "internalType": "string[]",
          "name": "_milestoneNames",
          "type": "string[]"
        },
        {
          "internalType": "uint256[]",
          "name": "_milestoneTargets",
          "type": "uint256[]"
        },
        {
          "internalType": "string",
          "name": "_proofOfWork",
          "type": "string"
        },
        {
          "internalType": "string",
          "name": "_beneficiaries",
          "type": "string"
        },
        {
          "internalType": "string[]",
          "name": "_media",
          "type": "string[]"
        }
      ],
      "name": "createCampaign",
      "outputs": [
        {
          "internalType": "uint256",
          "name": "",
          "type": "uint256"
        }
      ],
      "stateMutability": "payable",
      "type": "function"
    },
    {
      "inputs": [
        {
          "internalType": "uint256",
          "name": "",
          "type": "uint256"
        },
        {
          "internalType": "address",
          "name": "",
          "type": "address"
        }
      ],
      "name": "donations",
      "outputs": [
        {
          "internalType": "uint256",
          "name": "",
          "type": "uint256"
        }
      ],
      "stateMutability": "view",
      "type": "function"
    },
    {
      "inputs": [
        {
          "internalType": "uint256",
          "name": "_campaignId",
          "type": "uint256"
        },
        {
          "internalType": "uint256",
          "name": "_milestoneIndex",
          "type": "uint256"
        }
      ],
      "name": "fundMilestone",
      "outputs": [],
      "stateMutability": "payable",
      "type": "function"
    },
    {
      "inputs": [
        {
          "internalType": "uint256",
          "name": "_campaignId",
          "type": "uint256"
        }
      ],
      "name": "getCampaignDetails",
      "outputs": [
        {
          "components": [
            {
              "internalType": "string",
              "name": "description",
              "type": "string"
            },
            {
              "internalType": "string",
              "name": "proofOfWork",
              "type": "string"
            },
            {
              "internalType": "string",
              "name": "beneficiaries",
              "type": "string"
            },
            {
              "internalType": "string[]",
              "name": "media",
              "type": "string[]"
            }
          ],
          "internalType": "struct GoalZilla.CampaignDetails",
          "name": "",
          "type": "tuple"
        }
      ],
      "stateMutability": "view",
      "type": "function"
    },
    {
      "inputs": [
        {
          "internalType": "uint256",
          "name": "_campaignId",
          "type": "uint256"
        }
      ],
      "name": "getCampaignMetadata",
      "outputs": [
        {
          "components": [
            {
              "internalType": "uint256",
              "name": "id",
              "type": "uint256"
            },
            {
              "internalType": "address",
              "name": "creator",
              "type": "address"
            },
            {
              "internalType": "string",
              "name": "title",
              "type": "string"
            },
            {
              "internalType": "string",
              "name": "category",
              "type": "string"
            },
            {
              "internalType": "uint256",
              "name": "goalAmount",
              "type": "uint256"
            },
            {
              "internalType": "uint256",
              "name": "totalFunded",
              "type": "uint256"
            },
            {
              "internalType": "bool",
              "name": "isActive",
              "type": "bool"
            },
            {
              "internalType": "uint256",
              "name": "createdAt",
              "type": "uint256"
            },
            {
              "internalType": "uint256",
              "name": "duration",
              "type": "uint256"
            }
          ],
          "internalType": "struct GoalZilla.CampaignMetadata",
          "name": "",
          "type": "tuple"
        }
      ],
      "stateMutability": "view",
      "type": "function"
    },
    {
      "inputs": [
        {
          "internalType": "uint256",
          "name": "_campaignId",
          "type": "uint256"
        }
      ],
      "name": "getCampaignParticipants",
      "outputs": [
        {
          "internalType": "address[]",
          "name": "donors",
          "type": "address[]"
        },
        {
          "internalType": "address[]",
          "name": "stakeholders",
          "type": "address[]"
        }
      ],
      "stateMutability": "view",
      "type": "function"
    },
    {
      "inputs": [
        {
          "internalType": "uint256",
          "name": "_start",
          "type": "uint256"
        },
        {
          "internalType": "uint256",
          "name": "_end",
          "type": "uint256"
        }
      ],
      "name": "getCampaignsByRange",
      "outputs": [
        {
          "internalType": "uint256[]",
          "name": "",
          "type": "uint256[]"
        }
      ],
      "stateMutability": "view",
      "type": "function"
    },
    {
      "inputs": [
        {
          "internalType": "string",
          "name": "_category",
          "type": "string"
        }
      ],
      "name": "getCategoryStats",
      "outputs": [
        {
          "internalType": "uint256",
          "name": "totalCampaigns",
          "type": "uint256"
        },
        {
          "internalType": "uint256",
          "name": "activeCampaigns",
          "type": "uint256"
        }
      ],
      "stateMutability": "view",
      "type": "function"
    },
    {
      "inputs": [
        {
          "internalType": "uint256",
          "name": "_campaignId",
          "type": "uint256"
        },
        {
          "internalType": "uint256",
          "name": "_milestoneIndex",
          "type": "uint256"
        }
      ],
      "name": "getMilestoneMetadata",
      "outputs": [
        {
          "components": [
            {
              "internalType": "string",
              "name": "name",
              "type": "string"
            },
            {
              "internalType": "uint256",
              "name": "targetAmount",
              "type": "uint256"
            },
            {
              "internalType": "bool",
              "name": "isCompleted",
              "type": "bool"
            },
            {
              "internalType": "bool",
              "name": "isFunded",
              "type": "bool"
            },
            {
              "internalType": "bool",
              "name": "isUnderReview",
              "type": "bool"
            }
          ],
          "internalType": "struct GoalZilla.MilestoneMetadata",
          "name": "",
          "type": "tuple"
        }
      ],
      "stateMutability": "view",
      "type": "function"
    },
    {
      "inputs": [
        {
          "internalType": "uint256",
          "name": "_campaignId",
          "type": "uint256"
        },
        {
          "internalType": "uint256",
          "name": "_milestoneIndex",
          "type": "uint256"
        }
      ],
      "name": "getMilestoneProof",
      "outputs": [
        {
          "internalType": "string",
          "name": "proofOfCompletion",
          "type": "string"
        },
        {
          "internalType": "uint256",
          "name": "fundsReleased",
          "type": "uint256"
        }
      ],
      "stateMutability": "view",
      "type": "function"
    },
    {
      "inputs": [
        {
          "internalType": "uint256",
          "name": "_campaignId",
          "type": "uint256"
        },
        {
          "internalType": "uint256",
          "name": "_milestoneIndex",
          "type": "uint256"
        }
      ],
      "name": "getMilestoneStatus",
      "outputs": [
        {
          "internalType": "bool",
          "name": "isCompleted",
          "type": "bool"
        },
        {
          "internalType": "bool",
          "name": "isFunded",
          "type": "bool"
        },
        {
          "internalType": "bool",
          "name": "isUnderReview",
          "type": "bool"
        },
        {
          "internalType": "uint256",
          "name": "voteCount",
          "type": "uint256"
        }
      ],
      "stateMutability": "view",
      "type": "function"
    },
    {
      "inputs": [
        {
          "internalType": "uint256",
          "name": "",
          "type": "uint256"
        },
        {
          "internalType": "uint256",
          "name": "",
          "type": "uint256"
        },
        {
          "internalType": "uint256",
          "name": "",
          "type": "uint256"
        }
      ],
      "name": "milestoneVotes",
      "outputs": [
        {
          "internalType": "bool",
          "name": "isUpvote",
          "type": "bool"
        },
        {
          "internalType": "string",
          "name": "message",
          "type": "string"
        },
        {
          "internalType": "address",
          "name": "voter",
          "type": "address"
        }
      ],
      "stateMutability": "view",
      "type": "function"
    },
    {
      "inputs": [
        {
          "internalType": "uint256",
          "name": "_campaignId",
          "type": "uint256"
        },
        {
          "internalType": "uint256",
          "name": "_milestoneIndex",
          "type": "uint256"
        }
      ],
      "name": "reviewMilestone",
      "outputs": [],
      "stateMutability": "nonpayable",
      "type": "function"
    },
    {
      "inputs": [
        {
          "internalType": "uint256",
          "name": "_campaignId",
          "type": "uint256"
        },
        {
          "internalType": "uint256",
          "name": "_milestoneIndex",
          "type": "uint256"
        },
        {
          "internalType": "bool",
          "name": "_isUpvote",
          "type": "bool"
        },
        {
          "internalType": "string",
          "name": "_message",
          "type": "string"
        }
      ],
      "name": "submitVote",
      "outputs": [],
      "stateMutability": "nonpayable",
      "type": "function"
    }
  ],
  "bytecode": "0x60808060405234601957600080556128af908161001f8239f35b600080fdfe6080604052600436101561001257600080fd5b60003560e01c8063141961bc146122225780632e01ec66146121e257806336738c1e146121555780633b30f38d1461202a5780635afce31e14611d5f57806369b660de14611c4f5780637b20144114611b995780637fbedb751461189c5780638a8d30aa146115775780638c6ab238146115055780638e3dfbbb14611391578063b6d07a4314611317578063d59a94d71461050a578063d993de6214610367578063e8049da1146102c2578063ee1554a31461026f578063fc9a7b31146101055763fca604d7146100e257600080fd5b34610100576000366003190112610100576020600054604051908152f35b600080fd5b3461010057610113366124e3565b906101216000548210612687565b80600052600160205261013d600c6040600020015483106126de565b80600052600160205261016160018060a01b036001604060002001541633146127c2565b8060005260036020526040600020826000526020526040600020600080916000908054905b8183106102305750505011156101e35780600052600160205260056101b283600c604060002001612735565b5001805460ff191690557fb7ab333173a25d27082c5bcc7f95d330190ebf0d3539c7761583c5f5f6ce1566600080a3005b80600052600160205260056101ff83600c604060002001612735565b5001805460ff191690557f4e2fd11f84344693b41d2aba9910e33b34a4f02d4d3a65b65b2201f3c8fa3c89600080a3005b90919260ff61023f8584612515565b5054161561025c5761025260019161275e565b935b019190610186565b929361026960019161275e565b94610254565b34610100576040366003190112610100576024356001600160a01b038116810361010057600435600052600260205260406000209060018060a01b03166000526020526020604060002054604051908152f35b346101005760806102d2366124e3565b906102e06000548210612687565b8060005260016020526102fc600c6040600020015483106126de565b80600052600160205261031682600c604060002001612735565b509160ff60056002850154940154169160005260036020526040600020906000526020526040600020549060ff604051938181161515855260081c1615156020840152151560408301526060820152f35b346101005760203660031901126101005760043560608060405161038a816123bb565b81815281602082015281604082015201526103a86000548210612687565b60005260016020526040600020600a8101604051916103c6836123bb565b6103d2600382016123f7565b83526103f3600f6103e5600e84016123f7565b9260208601938452016123f7565b90604084019182528254610406816125f2565b9361041460405195866123d6565b818552602085019060005260206000206000915b8383106104ed5761045f8888610485896104728a6060860194855260405196879660208852516080602089015260a08801906124be565b9051868203601f190160408801526124be565b9051848203601f190160608601526124be565b905190601f19838203016080840152815180825260208201916020808360051b8301019401926000915b8383106104bc5786860387f35b9193955091936020806104db600193601f1986820301875289516124be565b970193019301909286959492936104af565b6001602081926104fc856123f7565b815201920192019190610428565b610140366003190112610100576004356001600160401b03811161010057610536903690600401612547565b6024356001600160401b03811161010057610555903690600401612547565b6044356001600160401b03811161010057610574903690600401612547565b60843560643560a4356001600160401b03811161010057610599903690600401612609565b9160c435956001600160401b0387116101005736602388011215610100578660040135966105c6886125f2565b976105d4604051998a6123d6565b808952602460208a019160051b8301019136831161010057602401905b8282106113075750505060e4356001600160401b0381116101005761061a903690600401612547565b610104356001600160401b0381116101005761063a903690600401612547565b610124356001600160401b0381116101005761065a903690600401612609565b9185156112ac57841515806112a0575b156112405786518a51036111e75786511561118f576000549461068c8661275e565b600055856000526001602052604060002099868b5560018b0160018060a01b0333166bffffffffffffffffffffffff60a01b82541617905560028b0186516001600160401b038111610b71576106e2825461234a565b601f811161115d575b506020601f82116001146110f757908061071b926000916110ec575b508160011b916000199060031b1c19161790565b90555b805160038c01916001600160401b038211610b715761073d835461234a565b601f81116110ba575b50602090601f831160011461105357610778929160009183611048575b50508160011b916000199060031b1c19161790565b90555b60048a0189516001600160401b038111610b7157610799825461234a565b601f8111611016575b506020601f8211600114610fb05790806107d192600091610fa557508160011b916000199060031b1c19161790565b90555b60058a0187905560078a01554260088a015560098901805460ff191660011790558051600e8a01916001600160401b038211610b7157610814835461234a565b601f8111610f73575b50602090601f8311600114610f0c5761084e929160009183610f015750508160011b916000199060031b1c19161790565b90555b8051600f8901916001600160401b038211610b7157610870835461234a565b601f8111610ecf575b50602090601f8311600114610e68576108aa929160009183610e5d5750508160011b916000199060031b1c19161790565b90555b8051600a880191600160401b8211610b71578254828455808310610ddf575b50600092835260208084209899989391015b828210610ccc5750505050600c60009501945b8451811015610c3457610904818661276d565b5161090f828a61276d565b516040519160e083018381106001600160401b03821117610b7157604052825260208201908152604082016000815260608301906000825260206040519161095782846123d6565b600083526080860192835260a08601936000855260c0870195600087528d54600160401b811015610b7157808f600161099293018155612735565b989098610c1e57518051906001600160401b038211610b71576109b58a5461234a565b601f8111610bee575b508590601f8311600114610b87576109ee929160009183610ab75750508160011b916000199060031b1c19161790565b88555b516001880155610a146002880192511515839060ff801983541691151516179055565b51815461ff00191690151560081b61ff001617905590518051600386019290916001600160401b038311610b7157610a4c845461234a565b601f8111610b36575b5081601f8411600114610ac2575092610a9283610ab1979460019a999794600597600092610ab75750508160011b916000199060031b1c19161790565b90555b51600484015551151591019060ff801983541691151516179055565b016108f1565b015190503880610763565b9190601f1984168560005283600020936000905b828210610b1e57505093600199989693600596938b9383610ab19b9810610b05575b505050811b019055610a95565b015160001960f88460031b161c19169055388080610af8565b80600186978294978701518155019601940190610ad6565b610b61908560005283600020601f860160051c810191858710610b67575b601f0160051c019061280e565b8f610a55565b9091508190610b54565b634e487b7160e01b600052604160045260246000fd5b90601f198316918b600052876000209260005b89828210610bd8575050908460019594939210610bbf575b505050811b0188556109f1565b015160001960f88460031b161c19169055388080610bb2565b6001859682939686015181550195019301610b9a565b610c18908b60005287600020601f850160051c810191898610610b6757601f0160051c019061280e565b386109be565b634e487b7160e01b600052600060045260246000fd5b5060405186516020908290610c4c81838c860161249b565b8101600481520301902092835493600160401b851015610b7157610cc18492610c9e877f825fb10f7650ed27414d6f86acdf7d5946927d9b25001f045f1a2435deec02fe94600160209a0181556125da565b81549060031b9086821b91600019901b19161790556040519182913396836124f9565b0390a3604051908152f35b80999899518051906001600160401b038211610b7157610cec865461234a565b601f8111610dad575b50602090601f8311600114610d405792610d2e83600195946020948796600092610ab75750508160011b916000199060031b1c19161790565b87555b019401910190929897986108de565b90601f1983169187600052816000209260005b818110610d955750936020936001969387969383889510610d7c575b505050811b018755610d31565b015160001960f88460031b161c19169055388080610d6f565b92936020600181928786015181550195019301610d53565b610dd990876000526020600020601f850160051c81019160208610610b6757601f0160051c019061280e565b8d610cf5565b8360005282602060002091820191015b818110610dfc57506108cc565b80610e096001925461234a565b80610e16575b5001610def565b601f81118314610e2c5750600081555b8d610e0f565b610e4a908260005283601f6020600020920160051c8201910161280e565b8060005260006020812081835555610e26565b015190508c80610763565b90601f1983169184600052816000209260005b818110610eb75750908460019594939210610e9e575b505050811b0190556108ad565b015160001960f88460031b161c191690558b8080610e91565b92936020600181928786015181550195019301610e7b565b610efb90846000526020600020601f850160051c81019160208610610b6757601f0160051c019061280e565b8b610879565b015190508d80610763565b90601f1983169184600052816000209260005b818110610f5b5750908460019594939210610f42575b505050811b019055610851565b015160001960f88460031b161c191690558c8080610f35565b92936020600181928786015181550195019301610f1f565b610f9f90846000526020600020601f850160051c81019160208610610b6757601f0160051c019061280e565b8c61081d565b90508c01518f610707565b60008381528181209190601f198416908e5b828210610ffd5750509083600194939210610fe4575b5050811b0190556107d4565b8d015160001960f88460031b161c191690558e80610fd8565b600184956020939584930151815501940192018e610fc2565b61104290836000526020600020601f840160051c81019160208510610b6757601f0160051c019061280e565b8d6107a2565b015190508f80610763565b90601f1983169184600052816000209260005b8181106110a25750908460019594939210611089575b505050811b01905561077b565b015160001960f88460031b161c191690558e808061107c565b92936020600181928786015181550195019301611066565b6110e690846000526020600020601f850160051c81019160208610610b6757601f0160051c019061280e565b8e610746565b905089015138610707565b601f1982169083600052806000209160005b8b828210611145575050908360019493921061112c575b5050811b01905561071e565b8a015160001960f88460031b161c191690558f80611120565b60018495602093958493015181550194019201611109565b61118990836000526020600020601f840160051c81019160208510610b6757601f0160051c019061280e565b8e6106eb565b60405162461bcd60e51b815260206004820152602a60248201527f476f616c5a696c6c613a204174206c65617374206f6e65206d696c6573746f6e60448201526919481c995c5d5a5c995960b21b6064820152608490fd5b60405162461bcd60e51b815260206004820152602b60248201527f476f616c5a696c6c613a204d696c6573746f6e6520617272617973206c656e6760448201526a0e8d040dad2e6dac2e8c6d60ab1b6064820152608490fd5b60405162461bcd60e51b815260206004820152603260248201527f476f616c5a696c6c613a204475726174696f6e206d757374206265206265747760448201527165656e203120616e6420333635206461797360701b6064820152608490fd5b5061016d85111561066a565b60405162461bcd60e51b815260206004820152602d60248201527f476f616c5a696c6c613a20476f616c20616d6f756e74206d757374206265206760448201526c0726561746572207468616e203609c1b6064820152608490fd5b81358152602091820191016105f1565b34610100576040366003190112610100576004356001600160401b03811161010057611347903690600401612547565b611363602060243592816040519382858094519384920161249b565b81016004815203019020805482101561010057602091611382916125da565b90549060031b1c604051908152f35b346101005760203660031901126101005760043560006101006040516113b68161239f565b828152826020820152606060408201526060808201528260808201528260a08201528260c08201528260e082015201526113f36000548210612687565b60005260016020526040600020805460018060a01b0360018301541691600581015490600681015460ff6009830154166008830154916114de6007850154946040519761143f8961239f565b8852602088019889526114cb61146a600461145c600285016123f7565b9360408c01948552016123f7565b9160608a0192835260808a0198895260a08a0194855260c08a01951515865260e08a019687526101008a019788526040519a8b9a60208c525160208c015260018060a01b0390511660408b01525161012060608b01526101408a01906124be565b9051888203601f190160808a01526124be565b945160a08701525160c086015251151560e085015251610100840152516101208301520390f35b34610100576020366003190112610100576004356115266000548210612687565b60005260016020526115656040600020611573611551601061154a600b8501612825565b9301612825565b60405193849360408552604085019061259d565b90838203602085015261259d565b0390f35b346101005760803660031901126101005760043560243560443590811515809203610100576064356001600160401b038111610100576115bb903690600401612547565b926115c96000548210612687565b8060005260016020526115e5600c6040600020015483106126de565b6000928160005260016020526116016010604060002001612825565b60005b815181101561189257336001600160a01b03611620838561276d565b51161461162f57600101611604565b50509091925060015b1561184d57816000526003602052604060002083600052602052604060002060405190606082018281106001600160401b03821117610b71576040528282526020820186815260408301913383528054600160401b811015610b71576116a391600182018155612515565b939093610c1e576116c390511515849060ff801983541691151516179055565b51805160018401916001600160401b038211610b71576116e3835461234a565b601f811161181b575b50602090601f831160011461178d57827f36fb090632506aead86459b68597320c658b8b9af42846d69cbbf6cf953d13e7979695936002959361174593600092610e5d5750508160011b916000199060031b1c19161790565b90555b51910180546001600160a01b0319166001600160a01b039290921691909117905560408051918252602082018190523395829161178891908301906124be565b0390a4005b90601f1983169184600052816000209260005b81811061180357509260019285927f36fb090632506aead86459b68597320c658b8b9af42846d69cbbf6cf953d13e79a99989660029896106117ea575b505050811b019055611748565b015160001960f88460031b161c191690558b80806117dd565b929360206001819287860151815501950193016117a0565b61184790846000526020600020601f850160051c81019160208610610b6757601f0160051c019061280e565b896116ec565b60405162461bcd60e51b815260206004820152601c60248201527f476f616c5a696c6c613a204e6f742061207374616b65686f6c646572000000006044820152606490fd5b5050909192611638565b34610100576060366003190112610100576024356004356044356001600160401b038111610100576118d2903690600401612547565b6118df6000548310612687565b81600052600160205261190360018060a01b036001604060002001541633146127c2565b81600052600160205261191f600c6040600020015484106126de565b81600052600160205261193983600c604060002001612735565b5060028101805460ff8160081c1615611b545760ff8116611b005760ff191660011790558151600382019290916001600160401b038311610b715783859361198288965461234a565b601f8111611ace575b506020601f8211600114611a3b57927fa2efa9e8a9cb69da31069e845d86ddc3da31da23669a47f5ec5f60247d31a16b94926119e383600594611a0697600091611a3057508160011b916000199060031b1c19161790565b90555b01600160ff198254161790556040519182916020835260208301906124be565b0390a37f58f6cfb6f584c040922a278034d1656f5a3b2db9f6bb96d7fcb08e0e618bc2f1600080a3005b90508601518d610707565b601f1982169083600052806000209160005b818110611ab0575083611a0696937fa2efa9e8a9cb69da31069e845d86ddc3da31da23669a47f5ec5f60247d31a16b98969360059660019410611a97575b5050811b0190556119e6565b87015160001960f88460031b161c191690558c80611a8b565b8288015184558b99508a985060019093019260209283019201611a4d565b611afa90836000526020600020601f840160051c81019160208510610b6757601f0160051c019061280e565b8861198b565b60405162461bcd60e51b815260206004820152602660248201527f476f616c5a696c6c613a204d696c6573746f6e6520616c726561647920636f6d6044820152651c1b195d195960d21b6064820152608490fd5b60405162461bcd60e51b815260206004820152601f60248201527f476f616c5a696c6c613a204d696c6573746f6e65206e6f742066756e646564006044820152606490fd5b34610100576020366003190112610100576004356001600160401b038111610100576020611bce611be1923690600401612547565b816040519382858094519384920161249b565b810160048152030190206000808254915b828110611c09576040838382519182526020820152f35b611c1381856125da565b90549060031b1c600052600160205260ff60096040600020015416611c3b575b600101611bf2565b90611c4760019161275e565b919050611c33565b3461010057611d3c611cca611c63366124e3565b9060006080604051611c7481612384565b606081528260208201528260408201528260608201520152611c996000548210612687565b806000526001602052611cb5600c6040600020015483106126de565b6000526001602052600c604060002001612735565b506001810154600282015460ff60058401541690611cf360405194611cee86612384565b6123f7565b8452602084019283526040840160ff82161515815260ff606086019260081c1615158252608085019215158352604051958695602087525160a0602088015260c08701906124be565b935160408601525115156060850152511515608084015251151560a08301520390f35b611d68366124e3565b90611d766000548210612687565b80600052600160205260ff6009604060002001541615611fdb5760008181526001602052604090206008810154600790910154620151808082029180159083049091141715611fc557611dc891612751565b421015611f8057806000526001602052611deb600c6040600020015483106126de565b8060005260016020526040600020611e0683600c8301612735565b50600281019081549060ff8260081c16611f2f57600101543403611ede576101009061ff00191617905560068101611e3f348254612751565b9055600082815260026020908152604080832033845290915290205415611ebd575b50806000526002602052604060002060018060a01b0333166000526020526040600020611e8f348254612751565b90557f4e84fd279e9b8a989cf81bca6d0a9c62a19954af44c7ee39600aebb2ba4734e56020604051348152a3005b611ed890611ece33600b8301612781565b6010339101612781565b82611e61565b60405162461bcd60e51b815260206004820152602360248201527f476f616c5a696c6c613a20496e636f72726563742066756e64696e6720616d6f6044820152621d5b9d60ea1b6064820152608490fd5b60405162461bcd60e51b815260206004820152602360248201527f476f616c5a696c6c613a204d696c6573746f6e6520616c72656164792066756e60448201526219195960ea1b6064820152608490fd5b60405162461bcd60e51b815260206004820152601d60248201527f476f616c5a696c6c613a2043616d706169676e2068617320656e6465640000006044820152606490fd5b634e487b7160e01b600052601160045260246000fd5b60405162461bcd60e51b815260206004820152602160248201527f476f616c5a696c6c613a2043616d706169676e206973206e6f742061637469766044820152606560f81b6064820152608490fd5b3461010057612038366124e3565b81811061211057818103908111611fc55760018101809111611fc55761205d816125f2565b9161206b60405193846123d6565b818352612077826125f2565b6020840190601f190136823760005b838110806120fc575b156120b757806120a26120b29285612751565b6120ac828861276d565b5261275e565b612086565b81856040519182916020830190602084525180915260408301919060005b8181106120e3575050500390f35b82518452859450602093840193909201916001016120d5565b506121078184612751565b6000541161208f565b60405162461bcd60e51b815260206004820152601860248201527f476f616c5a696c6c613a20496e76616c69642072616e676500000000000000006044820152606490fd5b34610100576060366003190112610100576044356004356000526003602052604060002060243560005260205260406000209081548110156101005761219a91612515565b5060ff8154166121ac600183016123f7565b91600260018060a01b03910154166121d8604051938493151584526060602085015260608401906124be565b9060408301520390f35b34610100576122016121f3366124e3565b90611c996000548210612687565b506122136003600483015492016123f7565b611573604051928392836124f9565b3461010057602036600319011261010057600435600052600160205260406000208054600160a01b600190036001830154169160028101612262906123f7565b9061226f600382016123f7565b61227b600483016123f7565b9060058301549160068401546007850154600886015491600987015460ff1693600d88015495600e89016122ae906123f7565b98600f016122bb906123f7565b996040519c8d9c8d5260208d015260408c016101a090526101a08c016122e0916124be565b8b810360608d01526122f1916124be565b8a810360808c0152612302916124be565b9560a08a015260c089015260e08801526101008701521515610120860152610140850152838103610160850152612338916124be565b828103610180840152611573916124be565b90600182811c9216801561237a575b602083101461236457565b634e487b7160e01b600052602260045260246000fd5b91607f1691612359565b60a081019081106001600160401b03821117610b7157604052565b61012081019081106001600160401b03821117610b7157604052565b608081019081106001600160401b03821117610b7157604052565b90601f801991011681019081106001600160401b03821117610b7157604052565b906040519182600082549261240b8461234a565b80845293600181169081156124795750600114612432575b50612430925003836123d6565b565b90506000929192526020600020906000915b81831061245d5750509060206124309282010138612423565b6020919350806001915483858901015201910190918492612444565b90506020925061243094915060ff191682840152151560051b82010138612423565b60005b8381106124ae5750506000910152565b818101518382015260200161249e565b906020916124d78151809281855285808601910161249b565b601f01601f1916010190565b6040906003190112610100576004359060243590565b9291906125106020916040865260408601906124be565b930152565b8054821015612531576000526003602060002091020190600090565b634e487b7160e01b600052603260045260246000fd5b81601f82011215610100578035906001600160401b038211610b71576040519261257b601f8401601f1916602001856123d6565b8284526020838301011161010057816000926020809301838601378301015290565b906020808351928381520192019060005b8181106125bb5750505090565b82516001600160a01b03168452602093840193909201916001016125ae565b80548210156125315760005260206000200190600090565b6001600160401b038111610b715760051b60200190565b9080601f83011215610100578135612620816125f2565b9261262e60405194856123d6565b81845260208085019260051b820101918383116101005760208201905b83821061265a57505050505090565b81356001600160401b0381116101005760209161267c87848094880101612547565b81520191019061264b565b1561268e57565b60405162461bcd60e51b815260206004820152602260248201527f476f616c5a696c6c613a2043616d706169676e20646f6573206e6f74206578696044820152611cdd60f21b6064820152608490fd5b156126e557565b60405162461bcd60e51b815260206004820152602260248201527f476f616c5a696c6c613a20496e76616c6964206d696c6573746f6e6520696e646044820152610caf60f31b6064820152608490fd5b8054821015612531576000526006602060002091020190600090565b91908201809211611fc557565b6000198114611fc55760010190565b80518210156125315760209160051b010190565b8054600160401b811015610b715761279e916001820181556125da565b81546001600160a01b0393841660039290921b91821b9390911b1916919091179055565b156127c957565b60405162461bcd60e51b815260206004820152601f60248201527f476f616c5a696c6c613a204e6f742063616d706169676e2063726561746f72006044820152606490fd5b818110612819575050565b6000815560010161280e565b906040519182815491828252602082019060005260206000209260005b818110612857575050612430925003836123d6565b84546001600160a01b031683526001948501948794506020909301920161284256fea2646970667358221220a2855e5991f62bfd2d059cef4a1e02f2ee593f25d3ee69b78aa604c11289f40864736f6c634300081c0033",
  "linkReferences": {},
  "deployedLinkReferences": {}
}